:100000000C942A000C943F000C943F000C943F0089
:100010000C943F000C943F000C943F000C943F0064
:100020000C943F000C943F000C943F000C943F0054
:100030000C943F000C943F000C943F000C943F0044
:100040000C943F000C943F000C943F000C943F0034
:100050000C943F0011241FBECFE5D8E0DEBFCDBF1A
:1000600010E0A0E6B0E0E4E4F3E002C005900D92F9
:10007000A83EB107D9F70E94D9000C94A0010C94B6
:10008000000081B3806281BB82E88FBD8AE18EBDB2
:100090008FE39CE997BD86BD089588EE93E09BBDF4
:1000A0008ABD089588EB9BE09BBD8ABD089595B3FA
:1000B0009F70282F207F922B95BB95B39E7F95BB79
:1000C00095B3926095BB35E03A95F1F7000095B392
:1000D0009D7F95BB25B330E1839FC0011124922FF2
:1000E0009F70892B85BB85B3826085BB85E08A952F
:1000F000F1F7000085B38D7F85BB8FE39FE101970A
:10010000F1F700C00000089595B39F70282F207F5D
:10011000922B95BB95B3916095BB95B3926095BBBF
:1001200035E03A95F1F7000095B39D7F95BB25B377
:1001300030E1839FC0011124922F9F70892B85BBD2
:1001400085B3826085BB85E08A95F1F7000085B3B1
:100150008D7F85BB8FE39FE10197F1F700C0000021
:100160000895CF93DF93EC0103C021960E94840091
:1001700088818111FACFDF91CF9108958FEF84BBF1
:100180002FEF89EF90E0215080409040E1F700C0D0
:10019000000082E00E94570088E20E9457008CE035
:1001A0000E94570086E00E94570081E00E9457009D
:1001B000089581B38C7F81BB82B3836082BB0E9430
:1001C000BE000E9441000E94520081E00E94570040
:1001D00080E690E00E94B10080EC0E9457008CE61F
:1001E00090E00E94B1002FEF8DE399E42150804010
:1001F0009040E1F700C0000081E00E94570011E04C
:1002000081E005E0D0B3D170C0B3C2708823B9F1EA
:10021000D11135C02FEF80E792E02150804090400F
:10022000E1F700C0000081E00E945700002399F030
:10023000015083E790E00E94B1000E944D002FEF33
:1002400087E99AE3215080409040E1F700C0000028
:100250000E94520014C083E890E00E94B10080EC3C
:100260000E94570083E990E00E94B1002FEF87E9D8
:100270009AE3215080409040E1F700C00000112334
:10028000E9F1C1113BC02FEF80E792E0215080409F
:100290009040E1F700C0000081E00E945700053067
:1002A00098F40F5F83EA90E00E94B1000E944D0035
:1002B0002FEF87E99AE3215080409040E1F700C09A
:1002C00000000E9452001AC081E00E94570083EB98
:1002D00090E00E94B10080EC0E94570083EC90E017
:1002E0000E94B1002FEF87E99AE3215080409040AF
:1002F000E1F700C0000081E00E94570080E80E9402
:10030000570083ED90E00E94B10080EC0E945700FE
:1003100080EE90E00E94B10080E3800F0E94840094
:100320008DE990E00E94B1002FEF82E597E0215027
:1003300080409040E1F700C000008D2F1C2F62CF5D
:04034000F894FFCF5F
:10034400436172205061726B696E670053797374F4
:10035400656D0047617465204F70656E696E672036
:100364002020005041524B494E472046554C4C20CA
:100374002020004E4F20454E54525920202020204A
:10038400202000455849542047415445202020202E
:100394002020004E4F2043415220494E53494445AA
:1003A4002020004558495420494E56414C49442088
:1003B400202000546F74616C3A20352020202000E6
:0803C400467265653A20000055
:00000001FF
